:020000040800F2
:1000000000000220358E00088588000887880008D7
:10001000898800088B8800088D880008000000008F
:100020000000000000000000000000008F880008B1
:100030009188000800000000938800089588000857
:10004000858E0008858E0008858E0008858E000844
:10005000858E0008858E0008858E0008858E000834
:10006000858E0008858E0008858E0008858E000824
:100070009D880008858E0008AD880008858E0008E0
:10008000BD880008CD880008DD880008858E00083E
:10009000858E0008858E0008858E0008858E0008F4
:1000A000858E0008858E0008858E0008858E0008E4
:1000B000858E0008858E0008858E0008858E0008D4
:1000C000858E0008858E0008858E0008858E0008C4
:1000D000858E0008F58800080D890008258900082C
:1000E000858E0008858E0008858E0008858E0008A4
:1000F000858E0008858E0008858E0008858E000894
:10010000858E0008858E0008858E0008858E000883
:10011000858E0008858E0008858E0008858E000873
:100120003D890008858E00084D890008858E0008ED
:10013000858E0008858E0008858E0008858E000853
:10014000858E0008858E0008858E0008858E000843
:10015000858E0008858E00085D890008858E000860
:10016000858E0008858E0008858E0008858E000823
:10017000858E0008858E0008858E0008000000002E
:08018000858E0008858E000841
:1001C00010B5054C237833B9044B13B10448AFF391
:1001D00000800123237010BDC8090020000000002A
:1001E0004C2F010808B5034B1BB103490348AFF37B
:1001F000008008BD00000000CC0900204C2F010841
:1002000070B54C1E4F2C41D8DFE804F02828282870
:10021000404040403E3E283E3E3E3E3E3E3E3E3E0C
:100220003E3E3E402A2A2A2A2A2A2A2A283E3E3EA2
:100230003E3E403E2A292840282A2A3E2940403E68
:100240003E3E28282828283E28283E2840403E3E7A
:100250003E4040403E3E3E282A282A2AB2B1ABB159
:10026000D0E90545AC4211DA056904EB840E05EBD3
:100270008E0C01340026CCE90166446105F82E108D
:100280006046CCE9032370BD002AE9D14FF0000C91
:10029000604670BDF0B5C26811786E29864625D0DB
:1002A0003039CBB2092B2BD80026164D00206FF029
:1002B000004402E0B0EBD30F15DC0132CEF80C2085
:1002C0001378303B5FFA83FC00EB800001EB4000C9
:1002D000BCF1090F1946A4EB0303A5FB0373E9D98D
:1002E00006B14042F0BD4FF0FF30F0BD531CC3607B
:1002F00051783039CAB2092A02D81A460126D4E701
:100300000020F0BDCDCCCCCC10B5044629B9C368D3
:100310001A786AB15A1CC260197868290CD07629FB
:1003200006D12046FFF7B6FFE3681A785F2A01D0AE
:10033000002010BD0133E3602046FFF7ABFFE36808
:100340001A785F2AF4D10133E360012010BD00BFA9
:1003500010B4C3680A46197852290FD04F2903D028
:1003600010465DF8044B7047C46A03342021C46210
:100370000133C3605DF8044B002341E7C46A0234D3
:100380001F21C462F4E700BF002965D070B506469E
:100390000C46A368012B38DCD6F81C51B5F5806FEC
:1003A00003F1010331DC2278A360531E4F2B2CD8BC
:1003B000DFE803F03030304B2B2B2C2C303030303A
:1003C00030303030303030303030302B3030303032
:1003D000303030303030414130302B303030302808
:1003E00030303030302B2C30303030303030303016
:1003F000303030302B2B30282828282B303030302C
:1004000030303030E468002CC3D170BD2469002C3A
:10041000BFD1FAE7E16801353046C6F81C51FFF755
:10042000B3FF21693046FFF7AFFFD6F81C31013B1F
:10043000C6F81C3170BDE1680B78052BEBD1D6F8FE
:1004400038310133C6F83831E5E7D6F84431E16890
:100450000133C6F84431DEE7704700BFC3681A783D
:100460005F2A01D00120704710B55A1CC2605A782B
:100470005F2A044604D0FFF70DFFC043C00F10BD34
:100480000233C360FFF706FF002809DB092805DDFA
:10049000E3681A785F2A03D10133E360012010BDBD
:1004A000002010BD28B909E0002908DD00690139E4
:1004B00040B103782F2BF7D0002070477047FBD155
:1004C000C0687047704700BFF0B514465268A56811
:1004D0004B1C1344AB4283B00E46074611D8E56867
:1004E0006DB96368206832461844394607F090FBBE
:1004F000D4E9003233449D5463683344636003B0ED
:10050000F0BDE268002AFAD155B16D00AB42FCD8CB
:10051000206829460DF0BCF938B12060A560DEE7FF
:10052000022B4FF00205F0D8F2E7019020680CF0A2
:10053000B1FD019B0122C4E90033C4E90232DEE7C8
:100540000378722B07D0562B05D04B2B03D0442BAE
:1005500003D00020704701207047407800F0DF038F
:100560004F2BF8D0773801288CBF0020012070472E
:10057000D0F80031FF2B70B504460D4606D05A1C4A
:10058000C4F80021E55484F8045170BD00261946D2
:1005900080F8FF60D0E942329847D4F82831012230
:1005A0001344C4F828313346C4F80021E55484F8D4
:1005B000045170BD0346D0F8100190B1CB68426879
:1005C000002B10690BDB20B909E03BB10069013B4E
:1005D00030B102782F2AF8D000207047C0687047E9
:1005E00070470122C3F81821704700BF002942D08C
:1005F00038B505460C4623784C2B32D8DFE803F09B
:100600002F31313131272F373731313131313131DC
:1006100031313131313131312F31313131313131CC
:10062000313131313131312F313131312F313131BE
:1006300031312F37313131313131313131313131A6
:10064000312F2F3131312F2F2F31312F2F002146D4
:100650002846FFF7AFFF10B103782F2B00D0002002
:1006600038BDE1682846FFF7C1FF0028F8D12469AA
:10067000002CC0D1F3E70020704700BF2DE9F04106
:10068000044608460D4607F0DBFC40B3013DD4F8B4
:1006900000112F184FF0000809E00B46BD4201F190
:1006A0000101C4F80011E65484F8046117D0FF2951
:1006B00015F8016FF1D1D4E9423284F8FF80204669
:1006C0009847D4F8283101210B44C4F8283100237D
:1006D000BD42C4F80011E65484F80461E7D1BDE8D6
:1006E000F08100BF38B5C3681A78542A24D15A1C47
:1006F000C2605A785F2A044620D06E2A1CD0FFF7C9
:10070000C9FD421C18D4E36819785F2914D101335C
:10071000E360D4E905318B420EDA216903EB830CE7
:1007200001EB8C0001330025C0E90155636105230D
:1007300001F82C30C26038BD002038BD0233C360E0
:100740000022E6E72DE9F04188B00A4604461A493E
:1007500001A80DF0EDFA01A807F072FC40B301AD5D
:10076000D4F800112F184FF0000809E00B46AF42F3
:1007700001F10101C4F80011E65484F8046117D0B6
:10078000FF2915F8016BF1D1D4E9423284F8FF80DA
:1007900020469847D4F8283101210B44C4F8283169
:1007A0000023AF42C4F80011E65484F80461E7D195
:1007B00008B0BDE8F08100BF083A010870B50446F2
:1007C000FFF768FD051E46DDE66863689B1B9D42DA
:1007D0003EDCA26873195207E36004D5725D242AD7
:1007E00004BF0133E360092D22DD2A490822304687
:1007F0000CF008FF30B9337A2E2B2ED05F2B2CD083
:10080000242B2AD0D4E90532934221DA206903EB64
:10081000830200EB820001330022C0E90122636100
:1008200000230370C0E90133C0E90365A06270BD15
:10083000D4E9053293420BDA206903EB830200EB23
:10084000820001330022C0E901226361002EE7D15A
:100850000020A06270BD002070BD737A4E2BD1D1F4
:10086000E26A6369A1691632551B8B42E562EFDAD1
:10087000226903EB830081000133636102EB800096
:100880000023C0E901335354034A1523C0E903236D
:10089000DFE700BF0C3A0108183A01082DE9F041E2
:1008A000C3681A78532A31D15A1CC2605A78044658
:1008B000A2B39A1CC2605A785F2A44D0A2F13003D6
:1008C000D8B2092826D800210DE0303B99421DD826
:1008D000E06802781946451C1AB1E56002785F2A83
:1008E0003BD0A2F13003D8B2092801EBC103A2F139
:1008F000410C02EB8303E8D9BCF1190F06D801EBD8
:10090000C10302EB8303373B9942E1D90025284616
:10091000BDE8F081A2F141001928D4D9A36803F001
:100920000803002B14BF0125002500D1B9B93F4BA6
:10093000742103F1A80001E013F81C1F914215D0A7
:100940008342F9D1E2E70023226A9A42DED9E269C2
:1009500052F823502846BDE8F0810133F4E7E368FC
:100960001B78433B012B98BF0D46E0E75E69002EE4
:1009700054D0D4E905208242D3F8188053DA27698D
:1009800002EB820C07EB8C014FF0000EC1E901EE87
:1009900001324FF0180E626107F82CE0C1E90368DC
:1009A000A162002D37D0D3E90371E36A90420B4472
:1009B000E36236DD236902EB820003EB800501323E
:1009C0000026C5E901666261182203F82020C5E906
:1009D0000371E3681A78422A99D1A66A0133E36069
:1009E0002046FFF7EBFE2A4603464C212046FFF740
:1009F00007FCE3681A78422A0546EFD0A662002871
:100A000084D0D4E90832934280DAE1695A1C41F873
:100A1000230022627BE7D3E90171C6E7D4E9052010
:100A2000BFE70025D5E70021BAE700BF682F01081E
:100A30002DE9F8438F18B9424AD20C4605464FF0CB
:100A400000080CE0D5F80011FF2933D04B1CC5F885
:100A500000316E5485F804610134A74238D93B1B3C
:100A6000032B2678EEDD5F2EECD163785F2BE9D186
:100A7000A378552BE6D1E21C9742E3D9002105E08B
:100A8000A6F13703BA4203EB011123D0914612F8C5
:100A9000016BA6F13003D8B20928A6F1410CF1D9B7
:100AA000BCF1050FA6F16103EAD9052B14D8A6F114
:100AB0005703E7E7D5E9423285F8FF802846984793
:100AC000D5F8282101231A44C5F828210021BEE7C2
:100AD000BDE8F8835F26B5E74F45FBD95F2EF9D116
:100AE000FF29AFD8CEB2D5F80011FF2907D04B1C93
:100AF000C5F800314C466E5485F80461ACE7D5E981
:100B0000423285F8FF8028469847D5F828310133CE
:100B1000C5F828310021EAE72DE9F043C26883B027
:100B200004461046FFF70CFD00286ED11178A1F1A4
:100B300030034A2B64D8DFE813F0B800B800B800DF
:100B4000B800B800B800B800B800B800B80063003A
:100B5000630063006300630063006300FD016300E2
:100B6000CD00430163003D01DF01630063006300CA
:100B7000630063003E02B800D101C3016300B50108
:100B80001901F300DB006300630063006300B80039
:100B900063006300630063006300630098009800D3
:100BA0009800980098009800980098009800980085
:100BB0006300980098009800980063006300630049
:100BC00098009800ED01980098009800980098000F
:100BD0000123256B2363204601F0CAFB25630246EF
:100BE000002343212046FFF70BFB0546019038B157
:100BF000E3681A7822B15A1CE2601B78452B5BD05F
:100C00000025284603B0BDE8F083002201A9204654
:100C100001F0F0FD05460028F2D0E3681B78462B72
:100C200020461ED0FFF778FF28600028E8D0037820
:100C30001F3B012B05D8019AC368C2602A68019244
:100C40002B60019D002DDBD0D4E908329342D7DA26
:100C5000E1695A1C284641F82350226203B0BDE8DE
:100C6000F08300F07FFC2860DFE7B14863696139F9
:100C700001EB810100EB8101A069834280F2848352
:100C8000206903EB8306571C013300EB8605002225
:100C9000C5E901226361272300F82630E960E36A91
:100CA0004968E7600B44E362ABE7204600F02AFEA8
:100CB00005460190002DA3D0D4E9083293429FDA73
:100CC000E16941F82350019D5A1C2846226203B075
:100CD000BDE8F0830132E2602046FFF71DFF0023EC
:100CE000024625212046FFF78BFA05460190E1E7F1
:100CF0000132E2602046FFF761FDE36801901A7857
:100D0000492A054600F0D0822046FFF705FF019BE7
:100D1000024621212046FFF773FA05460190C9E7F4
:100D20002046FFF7DFFCE66801903378492B054643
:100D3000C0D1636B002B40F0DF8200283FF460AF2E
:100D4000D4E908218A42BFF65BAFE16941F822008D
:100D5000013222623278493A012A05D80136E6602A
:100D6000204601F01BFE03462A461CE05378A3F1FF
:100D70003002092A05D95F2B03D0413B192B00F221
:100D8000AE8200212046FFF789FDE36801901A78C2
:100D9000492A05467FF435AF0133E360204601F070
:100DA000FDFD2A46034604212046FFF729FA0546A1
:100DB00001907FE7204600F0D5FB0546019079E7DA
:100DC000531CE3605378002B3FF41AAF931CE3608D
:100DD0005378463B302B3FF613AF01A151F823F077
:100DE000E70F0008010C0008010C0008010C0008C6
:100DF000010C0008010C0008010C0008010C00089F
:100E0000010C0008010C0008010C0008010C00088E
:100E1000010C0008010C0008D10B0008010C0008AF
:100E2000010C0008010C0008010C0008010C00086E
:100E3000010C0008010C0008010C0008010C00085E
:100E4000010C0008010C0008010C000887100008C4
:100E5000010C00085B100008431100081311000882
:100E6000E3100008010C0008B31000087512000818
:100E7000010C0008010C0008010C0008010C00081E
:100E800045120008010C00082D120008010C000892
:100E9000010C0008FD110008D10B0008CD1100085D
:100EA000731100080132E2602046FFF735FE00238F
:100EB000024623212046FFF7A3F905460190F9E6F3
:100EC0000132E2602046FFF727FE0023024622217E
:100ED0002046FFF795F905460190EBE60132E26006
:100EE0002046FFF719FE0023024624212046FFF783
:100EF00087F905460190DDE60132E2602046FFF702
:100F00000BFE0023024626212046FFF779F905460D
:100F10000190CFE60132E2602046FFF74FFC00234C
:100F2000024628212046FFF76BF905460190C1E6ED
:100F30002C300108511CE16053785F2B00F0B28126
:100F4000303B092B00F2BD810B461D460133E360A7
:100F50001A78303A092AF8D9D4E905208242A3EB5D
:100F6000010CBFF64DAED4F810E002EB82000EEBA0
:100F700080068700002001328445C6E901006261D5
:100F80007FF73EAEC6E901000EF80700C6E9031C74
:100F90006A7819465F2A7FF433AE0131E16020465A
:100FA000FFF7BAFD324603462A212046FFF728F90B
:100FB000054601907EE60132E2602046FFF7ACFD77
:100FC000054600283FF41CAE2046FFF7A5FD03466A
:100FD00000283FF415AE2A462B212046FFF710F9D2
:100FE0000546019066E6D4E905318B4280F2D08156
:100FF000216903EB830001EB800501330026C5E97D
:10100000016663612C23019501F820309378303B11
:10101000DBB2092B94BF012333462B8203D8204631
:10102000FFF738F9019D2046FFF776FD019BE86048
:10103000DB68002B3FF4E4AD2046FFF72BF9E268B4
:10104000137813B1531CE3601378019DA3F173036C
:10105000B3FA83F35B096B82D3E5D4E9053293429B
:10106000BFF6CEAD2269BE4903EB8305A80001336C
:10107000636102EB85050023C5E9013313540E2398
:10108000C5E90313BDE5D4E905329342BFF6B8AD17
:101090002269B44903EB8305A8000133636102EBC5
:1010A00085050023C5E9013313540423C5E903135F
:1010B000A7E5D4E90532934280F26681226903EB09
:1010C000830102EB810501330020C5E90100636162
:1010D000272302F82130E36AA34AEA600433E3627B
:1010E0008FE5D4E90532934280F24E81226903EB09
:1010F000830102EB810501330020C5E90100636132
:10110000272302F82130E36A984AEA600933E36250
:1011100077E5D4E90532934280F23681226903EB08
:10112000830102EB810501330020C5E90100636101
:10113000272302F82130E36A8D4AEA600A33E3622A
:101140005FE5D4E90532934280F21E81226903EB08
:10115000830102EB810501330020C5E901006361D1
:10116000272302F82130E36A824AEA600933E36206
:1011700047E593785F2B00F0E580D4E90532934290
:10118000BFF63EAD226903EB830102EB810501331B
:101190000020C5E901006361422302F821302046A6
:1011A000FFF778F8E860E3681A785F2A7FF428ADE3
:1011B0000133E3602046FFF7AFFC2A4603462D21AA
:1011C0002046FFF71DF80546019073E5D4E9053286
:1011D000934280F2D980226903EB830102EB8105FF
:1011E00001330020C5E901006361272302F82130A3
:1011F000E36A614AEA600733E36202E5D4E9053253
:10120000934280F2C180226903EB830102EB8105E6
:1012100001330020C5E901006361272302F8213072
:10122000E36A564AEA600833E362EAE42046FFF7DD
:1012300073FC002302464B212046FEF7E1FF0546E2
:10124000019037E5D4E90532934280F29D8022690E
:1012500003EB830102EB810501330020C5E90100A6
:101260006361272302F82130E36A454AEA601133BB
:10127000E362C6E4D4E90532934280F285802269B4
:1012800003EB830102EB810501330020C5E9010076
:101290006361272302F82130E36A3A4AEA6008339F
:1012A000E362AEE4002678E60133E360204601F015
:1012B00075FB2A46034604212046FEF7A1FF019054
:1012C00022E50123256B2363204601F051F82563B5
:1012D000064600283FF494ACE1680A785AE62046B6
:1012E00000F010FB0546019000283FF489AC03781C
:1012F000182B7FF4E1AC84E4731CE3602046D4F83F
:101300001490D4F82080E76A01F048FBE3681B786A
:10131000492B07D0019DE660C4F81490C4F82080E2
:10132000E762C7E4019A002A3FF46AACD4E90813E3
:101330009942BFF665ACE56945F8212001310346C5
:10134000216230E503320123256BE26023632046EE
:1013500001F00EF82563054600287FF424AF4FE422
:10136000383A0108303A0108703201083432010875
:101370005C320108483201088432010898320108C1
:10138000C0320108AC32010800230193DB68FFDEA4
:1013900000231B70FFDE00BFF8B5C3681F78064648
:1013A00077BB4FF0000E3D4D452100228B1A03EB19
:1013B000D37302EB6303180105EB031C2C58207850
:1013C000B84206D094BF5A1C19468A42EED100207A
:1013D000F8BD60787045F5D1D6E905329342F6DA6A
:1013E000326903EB830102EB810001330024C0E981
:1013F00001447361322302F82130C0F80CC0F8BDFB
:101400005A1CC26093F801E01F78BEF1000F02D1B0
:10141000762FC8D0C5E79A1CC260762F93F801E0FA
:101420001FD1AEF13004E3B2092BBCD8FFF7C6F9E7
:10143000D6E905318B420246C9DA376903EB8301ED
:1014400007EB810001330025C0E901558900736174
:10145000002ABCD03323C0E901557B54C0E90342C4
:10146000F8BD632F9FD1BEF1760F9CD1D0E90C342B
:10147000B3FA83F35B094363FFF74EFB736B0246DA
:1014800033B1002335213046FEF7BAFE7463F8BD50
:1014900034213046FEF7B4FEF8E700BFD43201082D
:1014A00030B5C26883B000230193137823B3044698
:1014B00001AD11E04F2B16D0FFF72EFB02460023A3
:1014C0002E212046C2B1FEF79BFE2860A0B1E26843
:1014D000137800F110054BB1452B204606D02E2B7A
:1014E00004D0522BE6D15378452BE5D1019818B1A1
:1014F000036923B103B030BD002003B030BDC26822
:1015000011782729F6D1D268117C0929F2D1E16A34
:101510005268891AE162C360ECE700BF70B5C36826
:101520001A784A2A05461AD081B12846FFF7F4FAFC
:10153000044690B12846FFF7B3FF034668B1224640
:1015400028462921BDE87040FEF75ABE28460C46C1
:10155000FFF7A6FF03460028F1D1002070BD01333C
:10156000C360E2E710B50446806810F480200BD118
:10157000A26BB2F5006F06D8511CE368A16319781D
:10158000462907D0A26310BDE3681A78462A01D025
:10159000002010BD5A1CE2605A78592A04BF023359
:1015A000E36001212046FFF7B9FF01462046FEF720
:1015B000CFFEE3681A78452A04BF0133E360A368CD
:1015C00018BF00205B03DED4A26B013ADAE700BF4C
:1015D000F8B5C3681A78A2F130010929044661D927
:1015E000A2F16101192914D86F2A04D15A786E2A00
:1015F00004BF0233C3602046FFF7CEFE054610B19C
:101600000378322B69D0E3681978422951D02846F3
:10161000F8BDA2F14301012940F28B804C2A79D018
:10162000552A40F083805A786C2A00F0D580742ABD
:101630007CD15A1CC2605978742940F098809A1C59
:10164000C2609A785F2A00F045816E2A6ED0FEF75C
:1016500021FE0130E36800F1368119785F2977D1E6
:101660000133E360D4E90532934280F22B81226991
:1016700003EB830602EB860501330021C5E9011166
:101680006361482302F82630D4E908239A42E860CF
:1016900080F22481E169E36841F82250013222623C
:1016A0001978B2E7FFF78AF8E36819784229054606
:1016B000ADD1A66A0133E3602046FFF77FF82A46E2
:1016C00003464C212046FEF79BFDE368197842292A
:1016D0000546EFD0A6622846F8BDC268E36A916865
:1016E000126807330B44E36213786C2B8BD1537869
:1016F000692B88D19378002B85D12046FFF75EF8BF
:101700002A46034637212046FEF77AFDE368054660
:1017100019787AE70133C360FFF750F8054628B11E
:101720002046FEF79BFE00287FF46DAF002528467B
:10173000F8BD806A80B1017861B90169E26A0A4442
:10174000E262197843290A4600F08680442905D0D0
:1017500000255AE71829F0D0432A7DD0597830392E
:10176000052936D8DFE801F0062C2935322F13463B
:1017700000254AE74FF0010ED4E905219F1C8A425B
:10178000E76080F2A380D4F810C002EB82010CEB7A
:10179000810501320026C5E90166890062610028E1
:1017A00000F09480C5E9016608220CF8012085F854
:1017B0000CE0286199783B4627E74FF0030EDBE702
:1017C0004FF0020ED8E74FF0050ED5E74FF0040EAC
:1017D000D2E71146002518E75A1CC26059786C29D7
:1017E000C5D10233C360FFF75BFEE36806460028FD
:1017F00069D019784529ABD15A1CE2605A785F2A22
:1018000073D06E2A92D02046FEF744FD0130E36883
:1018100059D419785F299BD10133E360D4E90521BC
:101820008A425FDA216902EB820C01EB8C050132FE
:101830000027C5E901776261462201F82C20D4E92E
:1018400008218A42C5E903604CDAE16941F8225077
:10185000013222621978D8E65A78492A22D0A2F1B8
:10186000310104293FF662AF303A0233D7B2E36068
:10187000D4E90532934225DA226903EB830102EBB6
:10188000810501330026C5E90166890063610028EE
:1018900033D00723C5E901665354E3682F732861E9
:1018A0001978B2E6581CE0609A78A2F13101042957
:1018B0001FD80333303AE3602046D7B2FFF72CF944
:1018C000A06AD5E7E368197800259EE69978002597
:1018D0003B469AE60333C3600020C3E6E3680D4647
:1018E000197892E6197800258FE60233E36000202C
:1018F00094E759780025034687E6E368054619789A
:1019000083E600BF2DE9F047C26813784E3B84B0F0
:1019100004460C2B08D8DFE803F031070707071748
:101920000713070707078500FFF752FEE3681A78D9
:10193000492A054600F0C980284604B0BDE8F08772
:1019400004B0BDE8F04743E65378742B00F0CF8035
:101950000021FEF7A3FFE3681A78492A0546EBD178
:101960000133E360204601F019F803462A460421BA
:10197000204604B0BDE8F047FEF742BC0132C26029
:1019800003A9012200F036FF0746002800F0E78097
:1019900000212046FEF7DCFCE2681678804636B36C
:1019A000DFF834934FF0000A442E00F0DD80A6F1FA
:1019B0003003DBB21C2B40F21A81A6F16103192B14
:1019C00000F217812046FFF703FE0546BAF1000F2B
:1019D00006D001212B4652462046FEF711FC054653
:1019E000532E0DD1E268AA461678002EDCD10025D0
:1019F0003D60A1E7FFF790F80546BAF1000FE8D186
:101A0000E2681678452E00F0BE80002DEFD0D4E9B4
:101A100008318B42EBDAE16941F82350013323624C
:101A2000AA46E1E7531CC3605378472B02D0542BDE
:101A300040F0B780204600F0CFF90546002D00F0B9
:101A40008E80E3681A78452A40F089805A1CE2604B
:101A50005A78732A00F00181642A00F0A78020469A
:101A6000FFF750FF034620B30278462A21D0482AC8
:101A70001FD04FF0FF3620460193FEF7EFFC019B8D
:101A800000286CD0721C14D09C46D4E905239A42DD
:101A900080F21281216902EB820001EB80030132A6
:101AA0000027C3E901776261472201F82020C3E9DA
:101AB00003C62A78032A05D12A691178292904BF87
:101AC0000021D1602A46022152E7002847D0D4E9FC
:101AD00008218A4243DAE16941F822000132226298
:101AE0001A78493A012A7FF63BAF00233EE7D0E956
:101AF000053102328B42C26080F2CC80026903EB76
:101B00008305A9000133436102EB85050023C5E984
:101B1000013353546E4A0323C5E903232046FFF7DC
:101B200057FD2A46034601212046FEF769FBE26A7B
:101B3000E3680332E2621A78492A05467FF4FCAE74
:101B400068B1D4E908218A4209DAE16941F8220042
:101B5000013222621A78493A012AC6D800E70025E4
:101B6000284604B0BDE8F087537803F0DF03542B18
:101B700020463FF43FAFFFF72BFD0546BAF1000FBB
:101B80007FF427AF3CE7152329FA03F3D9073FD5A4
:101B90002046FFF71DFD15B1AA46054619E7054683
:101BA0002EE7002100F09AF8054647E79A1CE2600C
:101BB0009A785F2A7CD06E2AD1D02046FEF76AFB45
:101BC000461CCCD4E3681A785F2AC8D10133E3609D
:101BD0002046FFF797FE034600283FF455AF1A78DA
:101BE000462A3FF451AF482A3FF44EAF43E75546EB
:101BF000CAE7552E2FD0532E09D101212046FEF7DA
:101C00004DFE0546BAF1000F7FF4E3AEEAE6554615
:101C1000492E41D0542E51D0452E09D04D2E7FF45F
:101C2000E6AE002D3FF4E3AE0132E260AA46DBE609
:101C30003D60002D93D0B8F1000F04D0039BC8F88D
:101C40000C30CDF80C80E3681A78452A87D101332F
:101C5000039DE36070E655469AE70233E360204651
:101C6000FEF7FCFB00283FF47AAFD4E905239A4243
:101C700022DA216902EB820398000132626101EBF2
:101C800083030022C3E901220A5412490E22C3E948
:101C900003120EE7002541E7002D3FF4A8AE013204
:101CA000E260204600F07AFEAA460421054691E64D
:101CB0000333E36000268BE70023FAE62046FEF7B5
:101CC00011FDAA460546BAF1000F7FF482AE97E6F1
:101CD000583A0108483A0108FF03081070B5054654
:101CE0000E46FFF70FFE002849D00446EEB1AB6860
:101CF000DB071AD423784D2BA3F11C01A3F14F026B
:101D000035D032D8042932D9022B0CD12369002BCB
:101D100035D01A784D2AA2F11C00A2F14F012AD029
:101D200027D8042827D9204670BDEB681B78002BE4
:101D3000F9D0452BF7D021460B78042B32D026D88A
:101D4000022B22D109690029F6D12846FFF7E6FBCC
:101D5000A8B116B92378022B38D00346224628466C
:101D60000321BDE87040FEF74BBA012ADBD8E468D6
:101D7000C0E70129D7D8DB682361002BC9D1002433
:101D8000204670BD1C3B042B08D90021DDE74D2BFC
:101D9000A3F14F0202D0F5D9012AF6D8C96800296B
:101DA000CAD1D2E7CB685BB11978082901F1FF32BB
:101DB00008D80629E9D8012A02D81B69002BF3D1DB
:101DC0000121C2E7353918BF0121BEE70378292B6D
:101DD00008BFC660C1E700BF2DE9F041C16AC36812
:101DE00001F11402C2621A78542A82B0044675D0F6
:101DF000472A28D15A1CC2605A7822B39A1CC26062
:101E00005A78562A23D8402A1DD9413A152A1AD879
:101E1000DFE812F01D01190019001900190019005E
:101E200019001900190019001900190019001900EA
:101E3000190019001900FF001900E9001900DE005F
:101E4000E3680233E360002002B0BDE8F081722A4B
:101E5000F9D1FEF71FFA0128F5DDE3681A78002AA8
:101E6000F1D05E1CE6601B785F2BECD10022451E92
:101E700017464FF041083378002BE4D0242B40F074
:101E80009F817378532B00F0C0815F2B00F0BB81E2
:101E9000242BD8D11946D4E905039842D0DA266913
:101EA00000EB800C06EB8C030130C3E90177606125
:101EB00006F82C80E668D9600236023DE660002A0A
:101EC00000F09F8140212046FEF79AF90246002843
:101ED000B9D0002DCFDC00233F217EE05A1CC26028
:101EE0005A78002AAFD09A1CC2605B78413B352BF0
:101EF000A9D801A252F823F08B200008471E000841
:101F000097200008471E0008471E0008CB20000845
:101F1000471E00082F210008A92100089D21000864
:101F2000471E0008471E0008471E0008471E0008FD
:101F3000471E0008471E0008471E0008471E0008ED
:101F4000B52100083B210008471E00084B2100086E
:101F50005B210008471E0008471E0008471E0008B6
:101F6000471E0008471E0008471E0008471E0008BD
:101F7000471E0008471E0008471E0008471E0008AD
:101F800067210008471E0008471E0008471E00087A
:101F9000471E0008D7200008471E0008471E0008FB
:101FA000471E0008471E0008471E0008471E00087D
:101FB000471E0008471E0008471E0008471E00086D
:101FC000471E0008471E0008471E0008032100089E
:101FD000FFF798FC002302461321204602B0BDE81B
:101FE000F041FEF70DB99A78002A00F01081DA1C52
:101FF000C2609A78DB786E2A3AD0472B02D0542BF5
:1020000040F005812046FFF7E7FE02460023492104
:10201000E3E7FFF777FCD4E905139942024680F223
:1020200000810190206901EB810600EB8605002309
:10203000C5E9013301314223616100F826302046B1
:10204000FEF728F9019AE8602B461621C5E79B7830
:10205000472B01D0542B06D12046FFF7BDFE024688
:1020600000231721B9E70021FFF738FE0246F7E702
:10207000472B00F0E280542B00F0DF800021FFF7B7
:102080002DFE024600234A21A7E700F05DFC002355
:1020900002463021A1E7FEF73FFD05462046FEF748
:1020A000F9F80028FFF6CFAEE3681A785F2A7FF4CC
:1020B000CAAE0133E3602046FEF72EFDE16A05312A
:1020C000E16202462B460B2187E7FEF725FD002340
:1020D00002460E2181E76821FEF716F900283FF439
:1020E000B2AEE3681B78472B00F09D80542B00F0C4
:1020F0009A8000212046FFF7F1FD024600230F21C0
:102100006BE77621FEF700F900283FF49CAEE36808
:102110001B78472B00F08C80542B00F08980002125
:102120002046FFF7DBFD02460023102155E7FFF7AD
:10213000E9FB0023024614214FE70A31C162FEF792
:10214000EBFC002302460A2147E70F31C162FEF78C
:10215000E3FC0023024609213FE7FFF7D3FB0023FE
:102160000246152139E70021FEF7CEF800283FF49A
:102170006AAE00212046FEF7C7F800283FF463AEA0
:10218000E3681B78472B5DD0542B5BD000212046A1
:10219000FFF7A4FD0246002311211EE7FEF7BCFC59
:1021A00000230246122118E7FEF7B6FC0023024680
:1021B0000C2112E7FEF7B0FC002302460D210CE7CC
:1021C000B446002104E01CF8013F23B1242B02D0C7
:1021D0000131A942F7DBD4E9053083421DDA2069D9
:1021E00003EB830C0133636100EB8C03C3E90177DC
:1021F00000F82C70C3E90361E6680E446D1AE660CE
:102200005DE61A4665E62E2145E62F2143E60021CC
:102210002046FFF763FD0246F8E6E3680B44E360FF
:1022200011E6002510E72046FFF7D6FD024665E7D8
:102230002046FFF7D1FD024676E72046FFF7CCFDAA
:1022400002461FE72046FFF7C7FD0246A3E700BF8F
:10225000F8B5C26813784C2B32D1531CC360517847
:102260005F29044651D05A2913D15A1CE2605B7889
:10227000472B43D0542B41D000212046FFF72EFDA1
:10228000E3681A780646452A1AD10133E3603046DE
:10229000F8BDFEF741FC064690B10378272B12D01B
:1022A000E26815786E2D23D03D21452D59D0134677
:1022B00003E0E3601D78452D2FD00133002DF8D1C8
:1022C00000263046F8BDC3681A7C1AB1E26A596824
:1022D000521AE2622549186805F046FD0028DFD150
:1022E000E2681578452D3ED06E2D01D03D21DEE708
:1022F000531CE36055783E211A46D6E72046FFF787
:102300006BFDE36806461A78BDE7931CC3609278BC
:102310005A2A18BF0026B6D1A7E79D1AD4E90503AB
:1023200098421CDAD4F810E000EB80070EEB87032C
:102330004FEA870C00270130BD42C3E90177606195
:102340000DDDC3E901770EF80C70C3E903253246B1
:102350002046FDF755FFE36806461A7893E7002309
:10236000F5E70025DAE70132E260AAE75C3A010806
:10237000C26813784C2B00F09C80542B00F09A809C
:10238000F0B5732B83B0044665D0662B33D0A3F130
:10239000300109290ED82046FFF71AF90546002812
:1023A00000F08380E3681A78492A00F08580284687
:1023B00003B0F0BD6F2B5BD0692B40F08B8053785E
:1023C0006C2B00F0A5802046FEF7E6FF05460028AE
:1023D0006BD00378322B51D0342B00F08E8164D82F
:1023E000332B62D1C368032B5FD8DFE813F0D90029
:1023F000DD005E005E005378702BE4D1931CC36057
:102400009378542B00F021815F2B00F0A9806E2B74
:102410004BD0FDF73FFF411C47D4E3681A785F2A91
:1024200043D16FF0004201339142E3603DD002306E
:10243000D4E90532934238DA226903EB830102EBD7
:10244000810501330026C5E901666361062302F8B0
:102450002130E860ABE75378722B49D0702BB2D1B2
:102460000232C260FFF784FF002302464B212BE0BB
:1024700053786E2BA7D10232C2608CE7C168E36A41
:102480008A680E68023A1344E3623378732B50D1A2
:102490007278742A4DD1B278002A4AD12046FEF7CC
:1024A0003BFB2A46034637210EE00025284603B0B1
:1024B000F0BDCDE6FEF716B90133E360204600F02B
:1024C0006DFA2A4603460421204603B0BDE8F040D9
:1024D000FDF796BE742B7FF476AF53786C2B7FF4A8
:1024E00072AF0232E260FEF717FBE268054612E0C7
:1024F0000232C260FEF710FB05462046FFF768F87F
:10250000E368197849291BD003462A460121DBE7F5
:102510000232E260002511780029C6D05378002BE2
:10252000C3D04521204600F02BF92A46034631212D
:10253000CAE7CF68032FB8D8DFE807F03216613B4F
:1025400001330190E360204600F028FA019A034627
:1025500004212046FDF754FE2A4603460121B3E735
:102560000332C260012063E73278702A76D06D2A88
:1025700074D00027732B6CD17378502B69D1B3784A
:10258000002B66D1204600F009FA03462FB11A4607
:1025900039212046FDF734FE03462A46372193E7CA
:1025A00000232A4636218FE72046FFF7E1FE034647
:1025B000F3E7712B5ED17378752B5BD1B378002B69
:1025C00058D12046FFF7D4FE06462046FFF7D0FE3E
:1025D00007462046FFF7CCFE034600283FF465AFD0
:1025E0003A463C212046FDF70BFE324603463B218E
:1025F0002046FDF705FE2A4603463A2164E7EB68CC
:102600001B685A78632A00F08C803378662B00F0C0
:1026100096802046FFF7ACFE07463378632B50D1F7
:1026200072786C2A4DD1B278002A4AD145212046D1
:1026300000F0A6F80646392133463A462046FDF713
:10264000DFFD2A46034638213EE70332C260002000
:10265000EEE62046FFF78CFE034697E7717891423D
:1026600087D1E26811785F2984D10132E260337842
:1026700000277FE73378662B6DD06E2B7FF415AF84
:102680007378772B02D0612B7FF40FAF5F21204648
:1026900000F076F806462046FEF73EFAE3681A7820
:1026A000452A074667D0702A59D0692A7FF4FDAEC3
:1026B0005B786C2B7FF4F9AE2046FFF759FE03469A
:1026C0008EE7642B26D17278742A23D1B2780ABBA4
:1026D0002046FEF77DFFE3681A78492A0646AAD10C
:1026E0000133E360204600F059F9324603460421E5
:1026F0002046FDF785FD06469DE7E3681A785F2AC8
:102700007FF452AF0133E3604521204600F038F8F2
:10271000034642E7702B17D02046FFF729FE0646F6
:1027200089E71B78A3F16302012A03D9723B012BCD
:102730003FF66BAF2046FEF7EFF907466DE7204600
:10274000FEF72AFE074668E77378742BE4D1B37866
:10275000002BBDD0E0E72046FEF71EFE34E75A7896
:10276000692A7FF4A2AE0233E3604521204600F0DF
:1027700007F8034634E70133E360002330E700BF86
:102780002DE9F041C2680E46117882B00023B142B3
:102790000446019324D001AD012709E0FDF730FD87
:1027A000286000F1100588B1E3681A78B24211D0B0
:1027B000D4F8308027632046FFF7DAFD0246002375
:1027C0002E212046C4F83080002AE7D1002002B034
:1027D000BDE8F08101980133E36002B0BDE8F0810B
:1027E0000132C2602E211A4602B0BDE8F041FDF769
:1027F00007BD00BF2DE9F04F0F46C168B2F10009D7
:1028000083B00A78044615BF4FF01E0A4FF01B0A2A
:102810004FF01D084FF01A0814BF1C2619263D461C
:102820004FF0010B1BE0562A33D04B2A37D04B78A0
:1028300053B38B1CE3604978782950D06F2934D189
:10284000E36A0933E3624F21002300222046FDF7AB
:10285000D7FC2860C0B1E1680A7800F10C05084691
:10286000FDF76EFE002840D04B1C722AE360DAD1DF
:10287000E36A0933E3623146002300222046FDF774
:10288000BFFC28600028E6D10025284603B0BDE83B
:10289000F08FE36A0933E36241460023D5E7E36A38
:1028A0000633E36251460023CFE74F2939D1E36A6B
:1028B00001910933E3622046236BC4F830B00093E2
:1028C000FFF756FD009B2363019903460028DBD0E8
:1028D000E26810784528D7D10132E260B5E7E36AB3
:1028E0001133E3624D210023AFE7B9F1000FCCD1E2
:1028F000462ACAD1BD42C8D01D201E211C2204E098
:10290000192B0CD00C37BD42BFD03F683B781A2B37
:1029100003D01B2BF4D13970F4E73870F2E73A702A
:10292000F0E77729B0D1E36A0633E3622046FEF789
:10293000B7FD03460028A7D0E26811784529A3D146
:102940000132E260502180E738B5C26813784C2B21
:102950001FD0044607D8493B012B15D80132BDE8EA
:102960003840C2601AE0582B0ED101320123056BAA
:10297000C2600363FFF7FCFCE36825631A78452A0D
:102980000AD10133E36038BD2046BDE83840FEF788
:10299000C3B8BDE838405BE4002038BD70B5C368FB
:1029A000866A1A78452A82B004461FD00023019314
:1029B00001AD09E0FDF724FC286000F1100560B1CD
:1029C000E3681A78452A0BD02046FFF7BDFF024680
:1029D00000232F212046002AECD1002002B070BD38
:1029E0000198A6620133E36002B070BD5A1C002357
:1029F000C2602F211A4602B0BDE87040FDF700BC4E
:102A00002DE9F04F044693B0002A5CD0D0F818515D
:102A1000002D5BD113781646502B54D8DFE813F005
:102A2000BC091201120155056C084008E7078C002B
:102A30008000CD08A608F408E70595066E06350661
:102A40000E065A0233020C02E50142091B0969090C
:102A50005B078E008E008E00590059005900590006
:102A6000590059005900BA00BA005900590090099C
:102A700078001A08FF06A400BC06A400DD00DD00F3
:102A8000B3048E0453042C0453000504FD03CF0348
:102A900086075300B305530053003D013D01E00498
:102AA000DA04AD017D012E050705A803810353005B
:102AB0005A0333030C03AC0281025900BA015900D6
:102AC0005900C4F814310123C4F8183113B0BDE81B
:102AD000F08F0022D4F814310293D4F8103105930A
:102AE00002ABC4F81431002303960493002A72D079
:102AF0001121204602F018F8049B002B01F02B83D3
:102B0000029BC4F81431002DE0D0C4F81071DDE749
:102B1000F2681121204613B0BDE8F04F02F004B86E
:102B2000D0F80011FF2901F090854A1C7E23C4F8DB
:102B30000021635484F804313269EAE7D0F814E1E3
:102B4000BEF1000F3CD07246916849B950680078D8
:102B5000A0F1190CBCF1020F01F229858342D7D0F4
:102B60001268002AF0D12BE0D0E9443102AAC0F863
:102B700014210022CDE90216049211213269059335
:102B800001F0D2FF049B002B01F0F384029BC4F8F8
:102B900014319BE7D0F82051F0680378002D41F004
:102BA0005483052B01F0FE85232B01F02B83327813
:102BB0009A4201F02783242B01F04386D4F814E1D4
:102BC000CDF808E002ABC4F814310023CDE903636B
:102BD000D4F810310593F2688AE7F26812B1112136
:102BE00001F0A2FF3369002B3FF470AFD4F800511D
:102BF000FD2D01F2DF84DFF8B0832C2708F1010AF4
:102C00004FF0000929460BE00B460131D045C4F8CE
:102C10000011E75484F8047101F0A48218F8017FD0
:102C2000FF29F1D1D4F80831D4F80C2184F8FF90B1
:102C300020469847D4F828310133C4F828310121BF
:102C40000023E3E7D04DF268112101F06DFF05F19B
:102C50000108D4F800113A274FF000090BE00B46A9
:102C60000131A845C4F80011E75484F8047101F05B
:102C7000E78015F8017FFF29F1D1D4F80831D4F8A5
:102C80000C2184F8FF9020469847D4F8283101336E
:102C9000C4F8283101210023E3E7F26811782729DD
:102CA00041F0A483D1680D7C062D01F2B082002D85
:102CB00041F05685D4F80011FF2901F019854B1C0D
:102CC000C4F80031282363542046112184F80431CC
:102CD00001F02AFFD4F80011FF2901F0F9844B1C00
:102CE000C4F800312923635484F8043133783E2B2F
:102CF00001F0E884082D7FF41FAF5B212046FDF72B
:102D000037FC11213269204601F00EFF5D2120467B
:102D100013B0BDE8F04FFDF72BBCF2689B4902A849
:102D20000BF006F802A805F08BF900283FF4CEAEB0
:102D300002ADD4F800112F184FF0000809E00B463F
:102D40000131AF42C4F80011E65484F804613FF445
:102D5000BDAEFF2915F8016BF1D1D4F80831D4F8D4
:102D60000C2184F8FF8020469847D4F8283101339D
:102D7000C4F8283101210023E3E7D0F80011357BA6
:102D8000FF2901F028844B1CC4F80031655484F8F5
:102D900004519BE67E4FF268112101F0C5FE07F158
:102DA0000709D4F8001120254FF000080BE00B466E
:102DB0000131B945C4F80011E55484F8045101F01B
:102DC000258017F8015FFF29F1D1D4F80831D4F834
:102DD0000C2184F8FF8020469847D4F8283101332D
:102DE000C4F8283101210023E3E76A4FD0F800112D
:102DF00007F1150954254FF000080BE00B4601318F
:102E00004F45C4F80011E55484F804513FF480AEF6
:102E100017F8015FFF29F1D1D4F80831D4F80C215B
:102E200084F8FF8020469847D4F828310133C4F84D
:102E3000283101210023E3E7574FD0F8001107F1B3
:102E4000120967254FF000080BE00B4601314F4592
:102E5000C4F80011E55484F804513FF459AE17F852
:102E6000015FFF29F1D1D4F80831D4F80C2184F89E
:102E7000FF8020469847D4F828310133C4F8283120
:102E800001210023E3E7454FD0F8001107F10E09B7
:102E90006A254FF000080BE00B460131B945C4F834
:102EA0000011E55484F804513FF432AE17F8015F85
:102EB000FF29F1D1D4F80831D4F80C2184F8FF802F
:102EC00020469847D4F828310133C4F8283101212D
:102ED0000023E3E7324FD0F8001107F11909632509
:102EE0004FF000080BE00B4601314F45C4F80011CC
:102EF000E55484F804513FF40BAE17F8015FFF2945
:102F0000F1D1D4F80831D4F80C2184F8FF802046A0
:102F10009847D4F828310133C4F82831012100231F
:102F2000E3E7204FF268112101F0FEFD07F10409EB
:102F3000D4F800115B254FF000080BE00B4601317F
:102F4000B945C4F80011E55484F8045100F05E87D7
:102F500017F8015FFF29F1D1D4F80831D4F80C211A
:102F600084F8FF8020469847D4F828310133C4F80C
:102F7000283101210023E3E7F168FDF737FB4FF02B
:102F80000008A0B901F0DABC783A0108083A010853
:102F9000F43C0108843B0108703B0108603B0108D8
:102FA000443B0108703A0108183C01089046037838
:102FB0002F2B08F1010241F01781C368002B01F0AB
:102FC000138100690028F1D1C246D6F80C909046D2
:102FD00003E001354545BFF679ADC4F824514A46B2
:102FE0001121204601F0A0FDAA45F2DDCB4FD4F817
:102FF000001107F1010B2C260AE00B460131BB45FD
:10300000C4F80011E65484F80461E2D017F8016FA7
:10301000FF29F2D14FF00002D4F8083184F8FF20E4
:103020002046D4F80C219847D4F828310133C4F84D
:10303000283101210023E2E7B94FD0F8001107F150
:1030400019096E254FF000080BE00B460131B94518
:10305000C4F80011E55484F804513FF459AD17F851
:10306000015FFF29F1D1D4F80831D4F80C2184F89C
:10307000FF8020469847D4F828310133C4F828311E
:1030800001210023E3E7A74FD0F8001107F115094C
:1030900074254FF000080BE00B460131B945C4F828
:1030A0000011E55484F804513FF432AD17F8015F84
:1030B000FF29F1D1D4F80831D4F80C2184F8FF802D
:1030C00020469847D4F828310133C4F8283101212B
:1030D0000023E3E7944FD0F8001107F10D097B2599
:1030E0004FF000080BE00B4601314F45C4F80011CA
:1030F000E55484F8045100F0388717F8015FFF2980
:10310000F1D1D4F80831D4F80C2184F8FF8020469E
:103110009847D4F828310133C4F82831012100231D
:10312000E3E7824FD0F8001107F107097B254FF044
:1031300000080BE00B460131B945C4F80011E55415
:1031400084F8045100F0548717F8015FFF29F1D18A
:10315000D4F80831D4F80C2184F8FF802046984731
:10316000D4F828310133C4F8283101210023E3E7E2
:103170006F4FD0F8001107F11B0967254FF00008C9
:103180000BE00B460131B945C4F80011E55484F851
:1031900004513FF4BDAC17F8015FFF29F1D1D4F819
:1031A0000831D4F80C2184F8FF8020469847D4F8E1
:1031B00028310133C4F8283101210023E3E7D6E99F
:1031C00003753B78322B01F02781342B41F0A0842A
:1031D000D0F80011FF2901F02B844B1CC4F80031FA
:1031E0002823635484F804311121FA68204601F041
:1031F0009BFCD4F80011FF2901F0098429234A1C03
:10320000C4F80021635484F804312A461121204671
:1032100013B0BDE8F04F02F059BDF268112120460D
:1032200013B0BDE8F04F02F069BB424FD0F8001177
:1032300007F108096F254FF000080BE00B4601313C
:103240004F45C4F80011E55484F8045100F0058797
:1032500017F8015FFF29F1D1D4F80831D4F80C2117
:1032600084F8FF8020469847D4F828310133C4F809
:10327000283101210023E3E72E4FD0F8001107F198
:1032800008096F254FF000080BE00B4601314F4550
:10329000C4F80011E55484F804513FF44DAC17F81C
:1032A000015FFF29F1D1D4F80831D4F80C2184F85A
:1032B000FF8020469847D4F828310133C4F82831DC
:1032C00001210023E3E7F7681B4ED7F80880D0F808
:1032D000001106F1070A6F254FF000090BE00B46BD
:1032E0000131B245C4F80011E55484F8045100F0EE
:1032F000EB8616F8015FFF29F1D1D4F80831D4F834
:103300000C2184F8FF9020469847D4F828310133E7
:10331000C4F8283101210023E3E700BF183C01086D
:10332000E43B0108E83B0108E43C0108D43C010807
:10333000B43C0108283C01081C3C0108D6E90325DF
:1033400012B1112101F0F0FBD4F80011FF2901F0B6
:1033500062814A1C7B23C4F80021204663542A461C
:10336000112184F8043101F0DFFBD4F80011FF29AA
:1033700000F02E864A1C7D23C4F80021635484F893
:103380000431FFF7A3BBC54FD0F8001107F11D09A9
:1033900074254FF000080BE00B460131B945C4F825
:1033A0000011E55484F804513FF4B2AB17F8015F03
:1033B000FF29F1D1D4F80831D4F80C2184F8FF802A
:1033C00020469847D4F828310133C4F82831012128
:1033D0000023E3E7F268112101F0A6FBFFF7ACBB85
:1033E000AF4FD0F8001107F10D096A254FF0000822
:1033F0000BE00B460131B945C4F80011E55484F8DF
:1034000004513FF485AB17F8015FFF29F1D1D4F8DF
:103410000831D4F80C2184F8FF8020469847D4F86E
:1034200028310133C4F8283101210023E3E79D4FFF
:10343000D0F8001107F11C0967254FF000080BE0D8
:103440000B460131B945C4F80011E55484F8045124
:103450003FF45EAB17F8015FFF29F1D1D4F80831D2
:10346000D4F80C2184F8FF8020469847D4F82831FE
:103470000133C4F8283101210023E3E78A4FD0F853
:10348000001107F1090964254FF000080BE00B4615
:103490000131B945C4F80011E55484F8045100F035
:1034A000478617F8015FFF29F1D1D4F80831D4F825
:1034B0000C2184F8FF8020469847D4F82831013346
:1034C000C4F8283101210023E3E7F768D0F814910C
:1034D0000022C0F81421002F3FF4F5AA0DF10808CE
:1034E000D0F810C1434611469646C3E90027C3E908
:1034F00002EC3A784D2A9A46A2F11C0BA2F14F0039
:1035000001F1010500F0638600F29384BBF1040F22
:1035100040F25D86022AC4F8143114D13F693A782A
:10352000472A01F0498208EB01114FF0000A4D2AA9
:10353000A2F14F03A2F11C0001F0018000F2FC8710
:10354000042840F2FC87042A04BFCDE900C7C4F870
:1035500010D132691121204601F0E6FA3B78042BA4
:1035600002D1009BC4F8103108EB0515202755F84F
:10357000086C002E00F01886103D4545F7D1C4F8C0
:103580001491FFF7A3BA33691A783B2A7FF49BAAF8
:103590001B691B783C2B7FF496AA3246112102F05E
:1035A00003FC00287FF492AAD6E90383D3E90363DE
:1035B000D8F80C203D491068D3E9037504F0D4FB1A
:1035C000002841F0008232462046112102F07EFBA5
:1035D00042462046112102F091F920463A46112137
:1035E00002F074FB32492046FDF748F80DE6314FF2
:1035F000D0F8001107F10C0974254FF000080BE01A
:103600000B460131B945C4F80011E55484F8045162
:103610003FF47EAA17F8015FFF29F1D1D4F80831F1
:10362000D4F80C2184F8FF8020469847D4F828313C
:103630000133C4F8283101210023E3E71E4FD0F8FD
:10364000001107F1100976254FF000080BE00B463A
:103650000131B945C4F80011E55484F804513FF430
:1036600057AA17F8015FFF29F1D1D4F80831D4F82F
:103670000C2184F8FF8020469847D4F82831013384
:10368000C4F8283101210023E3E70C4FD0F80011E2
:1036900007F114096E254FF000081DE0983A010863
:1036A000643C0108943C0108743C0108383C010862
:1036B0003C3C0108F43A0108303B01082C3B01086E
:1036C0000B4601314F45C4F80011E55484F804510C
:1036D0003FF41EAA17F8015FFF29F1D1D4F8083191
:1036E000D4F80C2184F8FF8020469847D4F828317C
:1036F0000133C4F8283101210023E3E7C14FD0F89A
:10370000001107F10F0974254FF000080BE00B467C
:103710000131B945C4F80011E55484F804513FF46F
:10372000F7A917F8015FFF29F1D1D4F80831D4F8CF
:103730000C2184F8FF8020469847D4F828310133C3
:10374000C4F8283101210023E3E7AF4FD0F800117E
:1037500007F1110974254FF000080BE00B46013109
:10376000B945C4F80011E55484F804513FF4D0A9D8
:1037700017F8015FFF29F1D1D4F80831D4F80C21F2
:1037800084F8FF8020469847D4F828310133C4F8E4
:10379000283101210023E3E7B6F91230002B40F075
:1037A000EF86F268994BD168994200F02286112188
:1037B000204601F0B9F9D4F80031FF2B01F09E80CA
:1037C0002022591CC4F80011E25484F80421B6F9EF
:1037D0001080B8F1000F40F0E5858D4E5F25771D14
:1037E0000BE00B460131B742C4F80011E55484F8F0
:1037F00004513FF46BA916F8015FFF29F1D1D4F809
:103800000831D4F80C2184F8FF8020469847D4F87A
:1038100028310133C4F8283101210023E3E7D0F82F
:1038200014C1D0F8103105930DF108080023E146CA
:10383000CDF808C0C0F8148103960493BCF1000FC2
:1038400001F01A8101276546BE46B446464618E097
:10385000AB68A3B9032F3FF636A912AB03EB071BE6
:1038600095E80F00ABF1400A8AE80F004BF8406C76
:1038700008EB0716C4F814610137C5F808E02D6895
:1038800025B16B681B78193B022BE1D9DCF81020BD
:1038900011212046664601F047F9049BC4F81491B3
:1038A000002B7FF413A9012F0CD008EB071858F850
:1038B0000C2C013F1121204601F064F9012FA8F1E1
:1038C0001008F4D1D4F8143132461121204601F009
:1038D00087FEFFF7FBB8D6E90353002B3FF4F6A8A9
:1038E0002B44D0F80011013D5F1E4FF0000809E0A5
:1038F0000B460131AF42C4F80011E65484F804616C
:103900003FF4E4A8FF2915F8016FF1D1D4F808318C
:10391000D4F80C2184F8FF8020469847D4F8283149
:103920000133C4F8283101210023E3E733691B7810
:10393000392B7FF4C8A8F268D3681B6859786329CB
:1039400000F0EA8632461121204602F02DFA0028C6
:103950007FF4BCA8F3681A78322A00F0F687DB6897
:103960001B681A78632A40F0D4865A786C2A40F093
:10397000D0869B78002B40F0CC863369DA681178CA
:10398000032901F06380DA681121204602F09EF9D4
:10399000F268D3681B681978692940F04387587822
:1039A000782840F03F879878002840F03B872046F1
:1039B0005B21FCF7DDFD3369204611211A6901F016
:1039C000B3F85D212046FCF7D3FDF3681A78322A5C
:1039D0007FF47CA8DB689A68012A7FF477A85B688B
:1039E0001B783E2B7FF472A82921FFF790B9F76866
:1039F000002F40F07684074ED0F8001106F103083E
:103A0000742515E0183B0108043B0108CC3001087F
:103A1000083C0108843C01080B460131B045C4F85C
:103A20000011E55484F804513FF450A816F8015FE2
:103A3000FF29F1D1D4F80831D4F80C2184F8FF70B3
:103A400020469847D4F828310133C4F828310121A1
:103A50000023E3E7F268CAB1D0F8141102ABC0F852
:103A600014310023CDE9021604931121D0F810314E
:103A7000059301F059F8049B029AC4F81421002B15
:103A80007FF424A820212046FCF772FDD4F81431DD
:103A900032461121204613B0BDE8F04F01F08ABB39
:103AA000D0F82031002B00F0D383D14FD0F8001193
:103AB00007F1040961254FF000080BE00B460131C6
:103AC000B945C4F80011E55484F8045100F0D883D6
:103AD00017F8015FFF29F1D1D4F80831D4F80C218F
:103AE00084F8FF8020469847D4F828310133C4F881
:103AF000283101210023E3E70023D0F84871D0F8F2
:103B00001481F268C0F81431C0F84861112101F045
:103B10000BF894F804313C2B00F0CE85D4F800115A
:103B2000FF2900F0B9854B1CC4F800313C236354D5
:103B300084F8043132691121204600F0F5FF94F831
:103B400004313E2B00F0A285D4F80011FF2900F0CB
:103B50008D854B1CC4F800313E23635484F8043136
:103B6000C4F81481C4F84871FEF7B0BFA14FD0F873
:103B7000001107F1070956254FF000080BE00B462E
:103B80000131B945C4F80011E55484F804513EF4FC
:103B9000BFAF17F8015FFF29F1D1D4F80831D4F88D
:103BA0000C2184F8FF8020469847D4F8283101334F
:103BB000C4F8283101210023E3E78F4FD0F800112A
:103BC00007F10A0976254FF000080BE00B4601319A
:103BD000B945C4F80011E55484F804513EF498AF97
:103BE00017F8015FFF29F1D1D4F80831D4F80C217E
:103BF00084F8FF8020469847D4F828310133C4F870
:103C0000283101210023E3E77C4FD0F8001107F1B0
:103C1000170963254FF000080BE00B460131B94549
:103C2000C4F80011E55484F8045100F0728117F8CB
:103C3000015FFF29F1D1D4F80831D4F80C2184F8C0
:103C4000FF8020469847D4F828310133C4F8283142
:103C500001210023E3E76A4FD0F8001107F11409AE
:103C600072254FF000080BE00B460131B945C4F84E
:103C70000011E55484F8045100F01F8117F8015F2A
:103C8000FF29F1D1D4F80831D4F80C2184F8FF8051
:103C900020469847D4F828310133C4F8283101214F
:103CA0000023E3E7574FD0F8001107F11809542516
:103CB0004FF000080BE00B460131B945C4F8001184
:103CC000E55484F804513EF423AF17F8015FFF294F
:103CD000F1D1D4F80831D4F80C2184F8FF802046C3
:103CE0009847D4F828310133C4F828310121002342
:103CF000E3E7454FD0F8001107F1100968254FF0B0
:103D000000080BE00B460131B945C4F80011E55439
:103D100084F804513EF4FCAE17F8015FFF29F1D19D
:103D2000D4F80831D4F80C2184F8FF802046984755
:103D3000D4F828310133C4F8283101210023E3E706
:103D4000F268D2E90053002B3EF4C0AE2B44D0F809
:103D50000011013D5F1E4FF0000809E00B460131E4
:103D6000AF42C4F80011E65484F804613EF4AEAEEC
:103D7000FF2915F8016FF1D1D4F80831D4F80C21DE
:103D800084F8FF8020469847D4F828310133C4F8DE
:103D9000283101210023E3E7D6E90353002B3EF449
:103DA00095AE2B44D0F80011013D5F1E4FF0000886
:103DB00009E00B460131AF42C4F80011E65484F823
:103DC00004613EF483AEFF2915F8016FF1D1D4F8F8
:103DD0000831D4F80C2184F8FF8020469847D4F8A5
:103DE00028310133C4F8283101210023E3E700BF63
:103DF000903A0108C43A0108B83A0108D03A0108DB
:103E0000B83B01089C3B0108D03B010811213269F5
:103E1000204600F089FED4F80011FF2900F0ED8261
:103E20004A1C5D23C4F80021635484F80431FEF772
:103E30004DBE012840F2CB81C4F81431FFF789BB95
:103E400037693B78472B02D03A46FEF762BED1492C
:103E50002046FCF713FC3A69CF49013202A809F069
:103E600067FF02A804F0ECF8002800F0E68302AD3A
:103E7000D4F8001105EB00094FF0000809E00B46EB
:103E80000131A945C4F80011E65484F8046100F03A
:103E9000D483FF2915F8016BF1D1D4F80831D4F897
:103EA0000C2184F8FF8020469847D4F8283101334C
:103EB000C4F8283101210023E3E7B84F326911210A
:103EC000204600F031FE07F10409D4F80011202546
:103ED0004FF000080BE00B4601314F45C4F80011CC
:103EE000E55484F804513EF413AE17F8015FFF293E
:103EF000F1D1D4F80831D4F80C2184F8FF802046A1
:103F00009847D4F828310133C4F82831012100231F
:103F1000E3E7A34FF2681121204600F005FE07F108
:103F20000309D4F800112D254FF000080BE00B46D3
:103F300001314F45C4F80011E55484F804513EF4B2
:103F4000FBAD17F8015FFF29F1D1D4F80831D4F89F
:103F50000C2184F8FF8020469847D4F8283101339B
:103F6000C4F8283101210023E3E7F2688A490132CD
:103F700002A809F0DDFE02A804F062F818B302AD51
:103F8000D4F800112F184FF0000808E00B4601315B
:103F9000AF42C4F80011E65484F8046115D0FF293B
:103FA00015F8016BF2D1D4F80831D4F80C2184F85B
:103FB000FF8020469847D4F828310133C4F82831CF
:103FC00001210023E4E7D4F80011FF297FF4D2A9EE
:103FD0000025D4E9423284F8FF5020469847D4F8AF
:103FE000283101221344C4F828312946FFF7C3B908
:103FF000D4F82031F2686B4F0133C4F8203111211D
:10400000204600F091FDD4F82031D4F80011013B96
:10401000C4F8203107F1010929254FF000080AE012
:104020000B460131B945C4F80011E55484F8045138
:104030001BD017F8015FFF29F2D1D4F80831D4F86A
:104040000C2184F8FF8020469847D4F828310133AA
:10405000C4F8283101210023E4E73246112120462B
:1040600013B0BDE8F04F01F09FBB32694A490132FD
:1040700002A809F05DFE02A803F0E2FF0028A2D02A
:1040800002ADD4F800112F184FF0000808E00B46DD
:104090000131AF42C4F80011E65484F8046194D0B1
:1040A000FF2915F8016BF2D1D4F80831D4F80C21AE
:1040B00084F8FF8020469847D4F828310133C4F8AB
:1040C000283101210023E4E77D682B78613B192B1F
:1040D00040F25B8208F1FF37EB5D202B18BF4746AB
:1040E000002F3EF4F3AC013DD4F800112F444FF003
:1040F000000809E00B460131AF42C4F80011E65454
:1041000084F804613EF4E2ACFF2915F8016FF1D1A7
:10411000D4F80831D4F80C2184F8FF802046984761
:10412000D4F828310133C4F8283101210023E3E712
:104130001121F268204600F0F7FCD4F80011FF29A5
:1041400000F05A824A1C2923C4F80021635484F8E1
:104150000431FEF7BBBC32461121204600F012FDAF
:10416000FEF7CEBC3269D4F828610D4620461121F5
:1041700000F0DAFCD4F82831B3427EF4A7ACD4F8CE
:104180000031AB427EF4A2AC023DC4F80051FEF710
:104190009DBC00BF7C3A0108083A0108B03B010809
:1041A000EC3A0108E03C0108D4F80031FF2B00F0A4
:1041B0004B83581CC4F8000155F80C2CE75411210E
:1041C00084F80471204600F0DDFCFFF7D5B9FF68E4
:1041D0005246002F3EF475AC042D03F1100300F09D
:1041E000DF812946FFF781B9D6F80C90B8F1000FAE
:1041F0003EF46CAC08F1FF3AFEF7EFBE33782F2B9C
:104200007EF4DCACD4F814E10646FEF7D9BC072DE9
:104210007EF450AD3169087800287EF44BAD086912
:1042200001287EF447AD3D2B7EF444ADCB681B786E
:10423000302B00F06A84312B7EF43CADBA49204625
:1042400013B0BDE8F04FFCF719BA0025FEF7ACBC7F
:104250003146FCF7AFF9024600283EF434AC03784F
:104260002F2B00F00083D4F810512B68C4F81031C4
:104270001121204600F058FCC4F81051FEF726BC6E
:10428000F268AA49013202A809F052FD02A803F01F
:10429000D7FE00283EF41AAC02ADD4F800112F1856
:1042A0004FF0000809E00B460131BD42C4F800118F
:1042B000E65484F804613EF409ACFF2915F8016B5B
:1042C000F1D1D4F80831D4F80C2184F8FF802046CD
:1042D0009847D4F828310133C4F82831012100234C
:1042E000E3E7934ED0F8001106F105097B254FF066
:1042F00000080AE00B460131B145C4F80011E5544D
:1043000084F8045113D016F8015FFF29F2D1D4F8D4
:104310000831D4F80C2184F8FF8020469847D4F85F
:1043200028310133C4F8283101210023E4E77F4913
:104330003A4602A809F0FCFC02A803F081FE18B37B
:1043400002ADD4F800112F184FF0000808E00B461A
:104350000131AF42C4F80011E65484F8046115D06D
:10436000FF2915F8016BF2D1D4F80831D4F80C21EB
:1043700084F8FF8020469847D4F828310133C4F8E8
:10438000283101210023E4E7D4F80011FF2900F0CF
:10439000C7827D234A1CC4F80021635484F8043189
:1043A000FEF794BB634D5F266F1D4FF000080BE0D6
:1043B0000B460131AF42C4F80011E65484F80461A1
:1043C0003EF484AB15F8016FFF29F1D1D4F8083120
:1043D000D4F80C2184F8FF8020469847D4F828317F
:1043E0000133C4F8283101210023E3E70025FEF75B
:1043F00061BCD4F80011FFF7EAB90025D4E94232D4
:1044000084F8FF5020469847D4F8283101221344FD
:10441000C4F82831294604E5FB681E683378612B0F
:1044200040F0C3807278642A40F0BF80B278002ADE
:1044300040F0BB802A78032A00F0DE82392A00F09F
:104440001383732B1DD172785A2A41D196F80280BA
:10445000B8F1000F3CD129462046FCF7C7F830B927
:1044600008E0C36833B1006908F1010810B10378AE
:104470002F2BF6D04146204613B0BDE8F04FFCF795
:1044800061B93A461121204601F038FA3378672B9A
:1044900007D17278732A04D1B27812B92A46FEF78E
:1044A00038BB732B7EF4B1AE7378742B7EF4ADAE53
:1044B000B378002B7EF4A9AE28212046FCF758F8EB
:1044C00011212A46204600F02FFB2921FEF71FBCB0
:1044D000732BD6D17378502BD3D1B378002BD0D196
:1044E0001E4604E001362D69002D00F0C9812B78AD
:1044F0002F2B40F0C581EB68002B00F0C1811A78AA
:104500004B2AEFD1D9682046FCF770F8034648B132
:10451000002304E0C2682AB10069013310B10278B7
:104520002F2AF7D01E44DEE75C3C0108083A010858
:104530008C3C0108103C0108012B3FF60AA8042D11
:104540003EF4C1AA8E4601F1100B0FC98BE80F0093
:10455000CEE9017AFF68CEF810E00135CEF80CC044
:104560005946C4F814B1002F3EF4ADAA3A78FEF7CC
:10457000DEBF32461121204600F004FBFEF706BBE9
:10458000C849FCF77BF8FFF70CB9FF2900F005825A
:104590004B1CC4F800312023635484F8043199E59E
:1045A0000123C4E945A3FEF791BA2A7846E70D46F0
:1045B000FEF706BB002767552946D4E9423220465C
:1045C0009847D4F82831C4F800710133C4F8283171
:1045D0003D46FEF710BB0026D0F80831D0F80C217C
:1045E00080F8FF609847D4F8282101231A44C4F8C2
:1045F00028213146FEF7C8BB0025D4E9423284F8B1
:10460000FF5020469847D4F8283101221344C4F8BB
:104610002831294697E50026D4F80831D4F80C2132
:1046200084F8FF6020469847D4F8283101221344CB
:10463000C4F828313146FEF78DBE9B492046FCF771
:104640001DF8FF683A46FEF764BA0025D0F8083135
:10465000D0F80C2180F8FF509847D4F82831012277
:104660001344C4F828312946FEF760BA0025D4E97E
:10467000423284F8FF5020469847D4F8283101335D
:10468000C4F8283129460123FFF764BA20212046C7
:10469000FBF76EFFFFF758BA0025D4E9423284F8E1
:1046A000FF5020469847D4F828310133C4F8283108
:1046B00029460123FFF738BA20212046FBF758FF8F
:1046C000FFF72CBA2D212046FBF752FFFEF712BB55
:1046D0000027D4E9423284F8FF7020469847D4F886
:1046E00028310133C4F8283139460123FEF7F8BADE
:1046F0000027D4E9423284F8FF7020469847D4F866
:104700002831F2680133C4F8283139460123FEF715
:10471000D7BA3369FFF737B91B78A3F163010129D1
:1047200003D9723B012B3FF60DA91121204601F060
:10473000E5F83C212046FBF71BFF33691121DA68BD
:10474000204600F0F1F959492046FBF797FF3369FD
:1047500011211A69204600F0E7F92921FEF7D7BA9E
:104760003169097800297EF4A5AA3E2B00F0BE81AC
:10477000326911212046023D00F0D6F9042D3EF6A3
:10478000A5A9DFE805F00C0907050300484956E52F
:10479000484954E5484952E56C21FEF7B8BA7521FD
:1047A000FEF7B5BAD4F834C1BCF1000F40F3708104
:1047B000D4F830E12B46714604E0634501F108016D
:1047C00000F066815EF83320904203F10103F4D1DA
:1047D000D4F82CC16346BCF1000F04D1C6E05B687D
:1047E000002B00F0C3801A68824203D0B242F6D197
:1047F0009C45F4D001462046FBF7DCFE00283EF441
:1048000062A903782F2B7EF4CFA9D4F824110029B4
:10481000FFF6F4ACFBF746FE002800F06B8103784E
:10482000FEF7C2B9632900F0AF801121204601F0E4
:1048300065F8336911211A69204601F047FAFFF73C
:10484000C4B8C268FEF746B919462046D4E94232D8
:1048500084F8FF609847D4F8282101323346C4F821
:1048600028210120A6E4D4F824110029FFF6FBAC8E
:10487000FBF718FE024600287FF4F5ACFEF723B9DB
:104880000E49324602A809F053FA02A803F0D8FBF9
:1048900000283EF41BA902ADD4F800112F184FF0E8
:1048A000000817E0003C01088C3A0108343C01087C
:1048B000503C01084C3C0108483C0108083A0108FA
:1048C0000B460131AF42C4F80011E65484F804618C
:1048D0003EF4FCA8FF2915F8016BF1D1D4F808319A
:1048E000D4F80C2184F8FF8020469847D4F828316A
:1048F0000133C4F8283101210023E3E70025D4F86F
:104900000C2184F8FF5019462046D4F80831984706
:10491000D4F8282101322B46C4F82821FEF750BFD5
:104920000025D4E9423284F8FF5020469847D4F855
:10493000283101332946C4F828312AE51121F268CB
:10494000204601F0C3F9754979E4DA6891680129D4
:104950007FF405A8526812783E2A7FF400A8282127
:104960002046FBF705FEF368FEF7F9BF4B68D4F865
:104970001071C4F8103101462046FBF71BFE0028D9
:1049800000F0BB8001253CE759786C297FF44DAFDE
:104990009B78002B3FF44DAF47E70026D4E9423225
:1049A00084F8FF6020469847D4F828317D680133A9
:1049B000C4F828313146EBE5FF68002F3EF483A8A8
:1049C0003A78FEF7B0BD56492046FBF757FEF3682C
:1049D00043B111212046324601F078F920212046CA
:1049E000FBF7C6FD3A461121204600F09DF8002D48
:1049F0007EF40BACFEF76AB8EA68117801297FF4FF
:104A000020AD29690978292908BF154619E500262E
:104A1000D4F80831D4F80C2184F8FF602046984778
:104A2000D4F8283101333146C4F82831FEF7E6BB0B
:104A30000026D0E9423280F8FF609847D4F8283148
:104A400001333146C4F82831FEF7C7BB1369D26879
:104A50001B78292B1CBF0123C4F8183111212046D3
:104A600001F034F9FEF794BFEA681121204601F005
:104A70002DF93A46FEF7D2BB3269112100F054F805
:104A8000049BC4F81491002B3EF41CAFFEF71EB833
:104A9000D4F8383163457EF716A8D4F83021D4F81D
:104AA00010E102EBCC030CF10101C4F83411043322
:104AB00042F83C00BEF1000F24D0D4E9502C8046CF
:104AC00010E0D4F83C11DEF8040001EBC201013221
:104AD000C4F8402148601960DEF800E00B46BEF1E2
:104AE000000F0ED06245ECDBFDF7EDBF2D21FBF78B
:104AF0003FFD3DE6002D3DF4E6AFC4F81071FDF733
:104B0000E2BF404600221A6074E60649FFF797BBF1
:104B10003A46112100F0F2FEFEF777BB803C010817
:104B2000403C0108543C010830B5054683B01AB337
:104B30005368012B14461FDCD0F81C11B1F5806FAF
:104B40001ADC013353600131D0F82C31C0F81C114C
:104B5000C0F82CD11121CDE90023FDF751FF626887
:104B6000D5F81C310199C5F82C11013A013B62605E
:104B7000C5F81C3103B030BD0123C5F8183103B0AE
:104B800030BD00BF2DE9F8431378033B15460446BA
:104B90004D2B4FD8DFE813F019014E004E004E00A8
:104BA0004E004E004E004E004E004E004E004E0095
:104BB0004E004E004E004E004E004E004E004E0085
:104BC0004E004E0053007A00A10053007A00A1006D
:104BD000ED00FA00070183021E012C01510177014B
:104BE0004E004E004E004E009D014E00CD014E0085
:104BF0004E004E004E004E004E004E004E004E0045
:104C00004E004E004E004E004E004E004E004E0034
:104C10004E004E004E004E004E004E004E004E0024
:104C20004E004E004E004E004E004E00F4014E006D
:104C30003002C6002A461121BDE8F84374E7D54E7C
:104C4000D0F8001106F1080720254FF000080BE00E
:104C50000B460131B742C4F80011E55484F8045101
:104C600000F0C48016F8015FFF29F1D1D4F80831B3
:104C7000D4F80C2184F8FF8020469847D4F82831D6
:104C80000133C4F8283101210023E3E7C24ED0F8F4
:104C9000001106F1080720254FF000080BE00B4635
:104CA0000131B742C4F80011E55484F8045100F012
:104CB0009D8016F8015FFF29F1D1D4F80831D4F8AE
:104CC0000C2184F8FF8020469847D4F8283101331E
:104CD000C4F8283101210023E3E7B04ED0F80011D9
:104CE000771D20254FF000080AE00B460131BE4237
:104CF000C4F80011E55484F8045177D016F8015F28
:104D0000FF29F2D1D4F80831D4F80C2184F8FF80BF
:104D100020469847D4F828310133C4F828310121BE
:104D20000023E4E79E4FD0F8001107F10509202683
:104D30004FF000080BE00B460131B945C4F80011F3
:104D4000E65484F8046100F07D8117F8016FFF29B3
:104D5000F1D1D4F80831D4F80C2184F8FF80204632
:104D60009847D4F828310133C4F8283101210023B1
:104D7000E3E7D0F80031FF2B00F0CE812022591C50
:104D8000C0F80011C25480F8042125E0D0F80031A9
:104D9000FF2B00F0B281591C2022C4F80011E2540C
:104DA00084F8042126E0D0F80011FF2900F0958155
:104DB0004A1C2023C4F80021635484F804312A6972
:104DC00020461121BDE8F843AEE6EA681121BDE8AE
:104DD000F843A9E6D0F80011FF2900F0BC814A1C75
:104DE0002623C4F80021635484F80431BDE8F88315
:104DF000D0F800116B4D26266F1C4FF000080AE01A
:104E00000B460131BD42C4F80011E65484F8046138
:104E1000ECD015F8016FFF29F2D1D4F80831D4F89D
:104E20000C2184F8FF8020469847D4F828310133BC
:104E3000C4F8283101210023E4E75B4ED0F80011CB
:104E400006F1080720254FF000080AE00B46013163
:104E5000BE42C4F80011E55484F80451C6D016F8D7
:104E6000015FFF29F2D1D4F80831D4F80C2184F87D
:104E7000FF8020469847D4F828310133C4F8283100
:104E800001210023E4E7494ED0F8001106F10A079A
:104E900020254FF000080AE00B460131BE42C4F85D
:104EA0000011E55484F80451A0D016F8015FFF29E1
:104EB000F2D1D4F80831D4F80C2184F8FF802046D0
:104EC0009847D4F828310133C4F828310121002350
:104ED000E4E790F80431282B40F0D580344EEA689E
:104EE00011212046FFF720FEB71CD4F800113A2507
:104EF0004FF000080BE00B460131B742C4F8001137
:104F0000E55484F804513FF471AF16F8015FFF29AE
:104F1000F1D1D4F80831D4F80C2184F8FF80204670
:104F20009847D4F828310133C4F8283101210023EF
:104F3000E3E7204FD0F8001107F1090920264FF0D0
:104F400000080BE00B460131B945C4F80011E654E6
:104F500084F8046100F0858017F8016FFF29F1D112
:104F6000D4F80831D4F80C2184F8FF802046984703
:104F7000D4F828310133C4F8283101210023E3E7B4
:104F80000D4ED0F8001106F1100720254FF0000853
:104F900020E000BF003D01080C3D0108183D01085C
:104FA000403D0108483D01084C3D0108583D0108BD
:104FB000643D0108683D0108203D01080B460131B0
:104FC000B742C4F80011E55484F804513FF40EAF21
:104FD00016F8015FFF29F1D1D4F80831D4F80C217B
:104FE00084F8FF8020469847D4F828310133C4F86C
:104FF000283101210023E3E76D4FD0F8001107F1BC
:10500000080920264FF000080AE00B4601314F4501
:10501000C4F80011E65484F8046113D017F8016F46
:10502000FF29F2D1D4F80831D4F80C2184F8FF809C
:1050300020469847D4F828310133C4F8283101219B
:105040000023E4E72A69002A3FF4D0AEFF2932D0DA
:10505000481C2823C4F800016354112184F804314A
:1050600001E0EA6811212046FFF75EFDD4F8001147
:10507000FF2961D04A1C2923C4F80021635484F815
:105080000431BDE8F883D0F80011FF2972D04A1C22
:105090002023C4F80021635484F804311EE7D0F8BB
:1050A0000011FF2976D04A1C2A23C4F8002163543A
:1050B00084F804319AE60026D4F80831D4F80C219B
:1050C00084F8FF6020469847D4F828312A690133D4
:1050D000C4F8283101203146BBE70026D0F808315A
:1050E000D0F80C2180F8FF609847D4F828310122CD
:1050F0001344C4F8283131465BE60025194680F890
:10510000FF50D0E942329847D4F8283101210B44AE
:10511000C4F828312B463FE60021D0E9425280F8FE
:10512000FF101946A847D4F8283120220133C4F8CB
:1051300028312270012152E60025D4E9423284F858
:10514000FF5020469847D4F8283101221344C4F870
:10515000283129468FE70025D4E9423284F8FF50F0
:1051600020469847D4F8283101221344C4F8283146
:10517000294635E60026D0F80831D0F80C2180F811
:10518000FF609847D4F8283101221344C4F828312D
:1051900031467DE70025D0E9423280F8FF5098473C
:1051A000D4F8283101221344C4F8283129467BE77A
:1051B000343D01082DE9F843044616461D46002BF0
:1051C00064D09A68002A61D15A6811781939122975
:1051D00059D8DFE801F00A0A0A58585858580A8086
:1051E00080800A0A585858580A0094F80431202B35
:1051F00079D1D4F80011FF2900F083804B1C4FF0C7
:105200002808C4F8003104F801804FF00009D4F8F0
:10521000147184F804812A46C4F814914B46112174
:10522000204600F0B9F8D4F80021FF2A00F0888069
:10523000511C2923FF29C4F80011A35484F8043118
:1052400032D028224B1CC4F80031625484F8042167
:1052500032692AB111212046FFF766FCD4F80031EB
:10526000FF2B5DD05A1CC4F800212922E2541121E1
:1052700084F8042101232A46204600F08DF8C4F862
:105280001471BDE8F8831B68002B9AD10023D4F871
:105290001471C4F8143111212A46204600F07CF81C
:1052A000D4F80011FF29CCD1002384F8FF30204628
:1052B000D4E9423298472822D4F82831227084F861
:1052C000042101333269C4F828310123C4F80031C4
:1052D000002ABFD1C6E794F8043103F0FD02282A62
:1052E00087D0202B85D0D4F80031FF2B41D0591C1A
:1052F0002022FF29C4F80011E25484F804217FF42D
:105300007DAF0027D4E9423284F8FF7020469847E9
:10531000D4F828310133C4F82831394601236EE727
:105320000026194684F8FF60D4E9423220469847A7
:10533000D4F828210132C4F828213346012292E70B
:10534000114684F8FF90D4E942322046984742F64D
:1053500029032380D4F8283184F804813269013389
:10536000C4F828310223C4F80031002A7FF472AF58
:1053700078E70022194684F8FF20D4F80871D4F8A1
:105380000C212046B847D4F8283120220133C4F834
:1053900028312270012131E7002A00F0C2802DE976
:1053A000F047054688B01E4614460127D5F8182157
:1053B000CAB9A2680ABB62681178BEB1E368D5F8C1
:1053C0001081A7602929C5F8103124D02A292CD0B2
:1053D000022934D011212846FFF7D4FB2468C5F8F0
:1053E0001081002CE2D108B0BDE8F0874D2904D02F
:1053F00007D8A1F11C03042BE0D82468002CD5D1D8
:10540000F1E74F390129F8D9E368D5F81081A76091
:10541000C5F81031DEE7236811212846FFF7CAFEE0
:10542000C5F8108108B0BDE8F0872368112128462F
:1054300000F0D6F8C5F8108108B0BDE8F087644EDA
:10544000D5F81471D2684FF000091121C5F81491F4
:105450002846FFF769FB06F1010AC5F81471D5F873
:1054600000113A270AE00B4601315645C5F80011F4
:10547000EF5485F8047113D016F8017FFF29F2D19B
:10548000D5F80831D5F80C2185F8FF9028469847C3
:10549000D5F828310133C5F8283101210023E4E78C
:1054A00063681C692378472B17D04D2BA3F14F025B
:1054B000A3F11C010ED00BD804290BD922461121CF
:1054C0002846FFF731FBC5F8108108B0BDE8F0872A
:1054D000012AF3D8E4682378E7E73E4F7B2607F1FB
:1054E0000C0A4FF000090AE00B4601315745C5F898
:1054F0000011EE5485F8046114D017F8016FFF29EC
:10550000F2D1D5F80831D5F80C2185F8FF9028465E
:105510009847D5F828310133C5F8283101210023F7
:10552000E4E7704722692C49013201A808F000FC29
:1055300001A802F085FD20B301AED5F8001106EBFD
:10554000000A4FF0000908E00B4601315645C5F846
:105550000011EF5485F8047115D0FF2916F8017B6E
:10556000F2D1D5F80831D5F80C2185F8FF902846FE
:105570009847D5F828310133C5F828310121002397
:10558000E4E7D5F80011154F7D2607F1020A4FF028
:1055900000090AE00B460131BA45C5F80011EE5486
:1055A00085F8046196D017F8016FFF29F2D1D5F87C
:1055B0000831D5F80C2185F8FF9028469847D5F892
:1055C00028310133C5F8283101210023E4E700BF69
:1055D000783A01087C3A0108083A01088C3A010837
:1055E0002DE9F0470446174653B11E469D687DB32A
:1055F0001B68002BFAD1324611212046FFF7CCFE62
:10560000D4F80031FF2B00F09D80591C2022FF2987
:10561000C4F80011E25484F8042127D05B224B1C0B
:10562000C4F80031625484F80421FA682AB11121C7
:105630002046FFF779FAD4F80031FF2B2FD0591C00
:105640005D22C4F80011E25484F80421BDE8F0871B
:105650005B681B782A2B32D111212B46324620461B
:10566000FFF79AFED4F80011FF29D7D10022D4F811
:10567000083184F8FF202046D4F80C2198475B229B
:10568000D4F82831227084F80421FA68591C0123C7
:10569000C4F82811C4F80031002AC8D1CFE700258A
:1056A000194684F8FF50D4E9423220469847D4F88E
:1056B000283101210B44C4F828312B46C0E7DFF81C
:1056C000E480D4F800114FF0200908F1010A0CE041
:1056D0000B46D04501F10101C4F8001104F8039014
:1056E00084F804911AD018F8019FFF29F0D1D4F85A
:1056F0000831D4F80C2184F8FF5020469847D4F89C
:1057000028310133C4F8283100230121D045C4F8E1
:10571000001104F8039084F80491E4D111210023CE
:1057200032462046FFF738FED4F80011FF2926D074
:105730004B1C2922FF2BC4F80031625484F8042149
:105740007FF463AF0022194684F8FF20D4F8085193
:10575000D4F80C212046A847D4F828315B2245F61E
:105760002031218084F80421FA680133C4F82831FB
:105770000223C4F80031002A7FF459AF5FE700220A
:10578000D4F8083184F8FF202046D4F80C2198473B
:10579000D4F8283129220133C4F82831227001239A
:1057A00033E700BF7C3C010870B5D0F8483182B0C7
:1057B000044615462BB1D0F810210092C0F810D144
:1057C0000193EA681378042B0BD011212046FFF7D0
:1057D000ABF9D4F8483113B1009BC4F8103102B0D2
:1057E00070BDD26811212046FFF79EF9D4F84831E8
:1057F00013B1009BC4F8103194F804313C2B21D034
:10580000D4F80011FF2944D04A1C3C23C4F80021DD
:10581000635484F80431EB6811211A692046FFF7BC
:1058200083F994F804313E2B27D0D4F80011FF29D6
:1058300014D04A1C3E23C4F80021635484F8043178
:1058400002B070BDD4F80031FF2B33D02022591C98
:10585000C4F80011E25484F80421D3E70025D4E908
:10586000423284F8FF5020469847D4F8283101226C
:105870001344C4F828312946DCE7D4F80031FF2B63
:105880002BD02022591CC4F80011E25484F80421C2
:10589000CDE70026D4F80831D4F80C2184F8FF6055
:1058A00020469847D4F8283101221344C4F82831FF
:1058B0003146AAE70022194684F8FF20D4F808618F
:1058C000D4F80C212046B047D4F8283120220133E7
:1058D000C4F828312270012196E70021D4E9425210
:1058E00084F8FF1020461946A847D4F82831202212
:1058F0000133C4F82831227001219AE71178322946
:1059000002D01121FFF710B9D3682DE9F041D3E996
:10591000015767B32F44D0F800110446013D013F01
:105920004FF0000809E00B46BD4201F10101C4F847
:105930000011E65484F8046119D0FF2915F8016FAD
:10594000F1D1D4F80831D4F80C2184F8FF80204636
:105950009847D4F828310133C4F8283100230121B5
:10596000BD42C4F80011E65484F80461E5D1BDE8F5
:10597000F08100BF2DE9F047E4B090F80090B9F154
:105980005F0F00AF04460E46904600F0F880C14914
:105990000822204608F0ECF948B9237A2E2B00F0B3
:1059A000DD805F2B00F0DA80242B00F0D7804FF0F1
:1059B000000A204602F044FB23184FEA400E002163
:1059C000FB60BEF5006F4FF01103C7E90C11C7E98A
:1059D0000E11BC607C61F862F961B96239643B61A7
:1059E000C7F820E000F2B4806D464FEA800C00EB6F
:1059F00080030CF1070CA5EBC3039D462CF0070CAC
:105A00006A46BAF1010FADEB0C0DBA61C7F824D0AC
:105A100000F0BC80AAF10203012B00F2BD80E37A02
:105A2000BAF1020F08BF4FF0440904F10B0A18BF86
:105A30004FF045095F2BC7F814A003D1237B5A2BE5
:105A400000F02A81BEF1000F40F3AE8050467A602C
:105A500002F0F6FA7A6800230121C2E90133F96104
:105A6000002800F0A180C2E903A01370494600237A
:105A700007F10800FAF7C4FB7C698146204602F072
:105A8000DFFA23187B61235C002B40F08280B9F1A0
:105A9000000F7ED007F1440449462046C4E9443350
:105AA000C4E94933C4E94633C4E94B33C4E94D334F
:105AB000C4E94F337B60C4F8003184F80431C4F882
:105AC0002031C4F84431C4F80861C4F80C81FAF7F5
:105AD0005BFCD4F81C21D4F83811B2F5006FBCBFC0
:105AE0007B68C4F81C31D4F84431012901FB03F36D
:105AF000E846B8BF0121A8EBC101012B8D46C4F8CF
:105B000044316846B8BF0123A0EBC3039D4600267D
